{
  "_format": "hh-sol-artifact-1",
  "contractName": "Retailer",
  "sourceName": "contracts/Retailer.sol",
  "abi": [
    {
      "inputs": [
        {
          "internalType": "address",
          "name": "stockContractAddress",
          "type": "address"
        }
      ],
      "stateMutability": "nonpayable",
      "type": "constructor"
    },
    {
      "anonymous": false,
      "inputs": [
        {
          "indexed": false,
          "internalType": "uint32",
          "name": "orderId",
          "type": "uint32"
        },
        {
          "indexed": false,
          "internalType": "enum Retailer.OrderStatus",
          "name": "status",
          "type": "uint8"
        },
        {
          "indexed": false,
          "internalType": "string",
          "name": "clientEmail",
          "type": "string"
        },
        {
          "indexed": false,
          "internalType": "string",
          "name": "message",
          "type": "string"
        }
      ],
      "name": "DeliveryConfirmed",
      "type": "event"
    },
    {
      "anonymous": false,
      "inputs": [
        {
          "indexed": false,
          "internalType": "uint32",
          "name": "orderId",
          "type": "uint32"
        },
        {
          "indexed": false,
          "internalType": "enum Retailer.OrderStatus",
          "name": "status",
          "type": "uint8"
        },
        {
          "indexed": false,
          "internalType": "string",
          "name": "clientEmail",
          "type": "string"
        },
        {
          "indexed": false,
          "internalType": "string",
          "name": "message",
          "type": "string"
        }
      ],
      "name": "OrderAccepted",
      "type": "event"
    },
    {
      "anonymous": false,
      "inputs": [
        {
          "indexed": false,
          "internalType": "uint32",
          "name": "orderId",
          "type": "uint32"
        },
        {
          "indexed": false,
          "internalType": "enum Retailer.OrderStatus",
          "name": "status",
          "type": "uint8"
        },
        {
          "indexed": false,
          "internalType": "string",
          "name": "clientEmail",
          "type": "string"
        },
        {
          "indexed": false,
          "internalType": "string",
          "name": "message",
          "type": "string"
        }
      ],
      "name": "OrderCancelled",
      "type": "event"
    },
    {
      "anonymous": false,
      "inputs": [
        {
          "indexed": false,
          "internalType": "uint32",
          "name": "orderId",
          "type": "uint32"
        },
        {
          "indexed": false,
          "internalType": "enum Retailer.OrderStatus",
          "name": "status",
          "type": "uint8"
        },
        {
          "indexed": false,
          "internalType": "string",
          "name": "clientEmail",
          "type": "string"
        },
        {
          "indexed": false,
          "internalType": "string",
          "name": "message",
          "type": "string"
        }
      ],
      "name": "OrderCreated",
      "type": "event"
    },
    {
      "anonymous": false,
      "inputs": [
        {
          "indexed": false,
          "internalType": "uint32",
          "name": "orderId",
          "type": "uint32"
        },
        {
          "indexed": false,
          "internalType": "enum Retailer.OrderStatus",
          "name": "status",
          "type": "uint8"
        },
        {
          "indexed": false,
          "internalType": "string",
          "name": "clientEmail",
          "type": "string"
        },
        {
          "indexed": false,
          "internalType": "string",
          "name": "message",
          "type": "string"
        }
      ],
      "name": "OrderDelivered",
      "type": "event"
    },
    {
      "anonymous": false,
      "inputs": [
        {
          "indexed": false,
          "internalType": "uint32",
          "name": "orderId",
          "type": "uint32"
        },
        {
          "indexed": false,
          "internalType": "enum Retailer.OrderStatus",
          "name": "status",
          "type": "uint8"
        },
        {
          "indexed": false,
          "internalType": "string",
          "name": "clientEmail",
          "type": "string"
        },
        {
          "indexed": false,
          "internalType": "string",
          "name": "message",
          "type": "string"
        }
      ],
      "name": "OrderRejected",
      "type": "event"
    },
    {
      "anonymous": false,
      "inputs": [
        {
          "indexed": true,
          "internalType": "address",
          "name": "previousOwner",
          "type": "address"
        },
        {
          "indexed": true,
          "internalType": "address",
          "name": "newOwner",
          "type": "address"
        }
      ],
      "name": "OwnershipTransferred",
      "type": "event"
    },
    {
      "inputs": [
        {
          "internalType": "uint32",
          "name": "orderId",
          "type": "uint32"
        }
      ],
      "name": "acceptOrder",
      "outputs": [],
      "stateMutability": "nonpayable",
      "type": "function"
    },
    {
      "inputs": [
        {
          "internalType": "uint32",
          "name": "orderId",
          "type": "uint32"
        }
      ],
      "name": "cancelOrder",
      "outputs": [],
      "stateMutability": "nonpayable",
      "type": "function"
    },
    {
      "inputs": [
        {
          "internalType": "uint32",
          "name": "orderId",
          "type": "uint32"
        }
      ],
      "name": "checkOrderItemsAvailability",
      "outputs": [
        {
          "internalType": "bool",
          "name": "",
          "type": "bool"
        }
      ],
      "stateMutability": "view",
      "type": "function"
    },
    {
      "inputs": [
        {
          "internalType": "uint32",
          "name": "orderId",
          "type": "uint32"
        }
      ],
      "name": "confirmDelivery",
      "outputs": [],
      "stateMutability": "nonpayable",
      "type": "function"
    },
    {
      "inputs": [
        {
          "internalType": "uint32[]",
          "name": "itemIds",
          "type": "uint32[]"
        },
        {
          "internalType": "uint32[]",
          "name": "itemQuantities",
          "type": "uint32[]"
        },
        {
          "internalType": "string",
          "name": "clientEmail",
          "type": "string"
        }
      ],
      "name": "createOrder",
      "outputs": [
        {
          "internalType": "uint32",
          "name": "",
          "type": "uint32"
        }
      ],
      "stateMutability": "nonpayable",
      "type": "function"
    },
    {
      "inputs": [
        {
          "internalType": "uint32",
          "name": "orderId",
          "type": "uint32"
        }
      ],
      "name": "deliverOrder",
      "outputs": [],
      "stateMutability": "nonpayable",
      "type": "function"
    },
    {
      "inputs": [],
      "name": "getNewOrders",
      "outputs": [
        {
          "internalType": "uint32[]",
          "name": "",
          "type": "uint32[]"
        }
      ],
      "stateMutability": "view",
      "type": "function"
    },
    {
      "inputs": [
        {
          "internalType": "uint32",
          "name": "orderId",
          "type": "uint32"
        },
        {
          "internalType": "uint32",
          "name": "itemId",
          "type": "uint32"
        }
      ],
      "name": "getOrderItem",
      "outputs": [
        {
          "internalType": "uint32",
          "name": "id",
          "type": "uint32"
        },
        {
          "internalType": "uint32",
          "name": "itemQty",
          "type": "uint32"
        }
      ],
      "stateMutability": "view",
      "type": "function"
    },
    {
      "inputs": [
        {
          "internalType": "uint32",
          "name": "orderId",
          "type": "uint32"
        }
      ],
      "name": "getOrderStatus",
      "outputs": [
        {
          "internalType": "enum Retailer.OrderStatus",
          "name": "",
          "type": "uint8"
        }
      ],
      "stateMutability": "view",
      "type": "function"
    },
    {
      "inputs": [
        {
          "internalType": "uint32",
          "name": "",
          "type": "uint32"
        }
      ],
      "name": "orders",
      "outputs": [
        {
          "internalType": "address",
          "name": "clientAddress",
          "type": "address"
        },
        {
          "internalType": "string",
          "name": "clientEmail",
          "type": "string"
        },
        {
          "internalType": "enum Retailer.OrderStatus",
          "name": "status",
          "type": "uint8"
        },
        {
          "internalType": "uint256",
          "name": "itemCount",
          "type": "uint256"
        }
      ],
      "stateMutability": "view",
      "type": "function"
    },
    {
      "inputs": [],
      "name": "owner",
      "outputs": [
        {
          "internalType": "address",
          "name": "",
          "type": "address"
        }
      ],
      "stateMutability": "view",
      "type": "function"
    },
    {
      "inputs": [
        {
          "internalType": "uint32",
          "name": "orderId",
          "type": "uint32"
        }
      ],
      "name": "rejectOrder",
      "outputs": [],
      "stateMutability": "nonpayable",
      "type": "function"
    },
    {
      "inputs": [],
      "name": "renounceOwnership",
      "outputs": [],
      "stateMutability": "nonpayable",
      "type": "function"
    },
    {
      "inputs": [
        {
          "internalType": "address",
          "name": "newOwner",
          "type": "address"
        }
      ],
      "name": "transferOwnership",
      "outputs": [],
      "stateMutability": "nonpayable",
      "type": "function"
    },
    {
      "inputs": [
        {
          "internalType": "uint32",
          "name": "minItems",
          "type": "uint32"
        }
      ],
      "name": "updateMinItemsPerOrder",
      "outputs": [],
      "stateMutability": "nonpayable",
      "type": "function"
    },
    {
      "inputs": [
        {
          "internalType": "address",
          "name": "newContract",
          "type": "address"
        }
      ],
      "name": "updateStockContract",
      "outputs": [],
      "stateMutability": "nonpayable",
      "type": "function"
    }
  ],
  "bytecode": "0x60806040523480156200001157600080fd5b5060405162003b0738038062003b07833981810160405281019062000037919062000182565b620000576200004b6200009f60201b60201c565b620000a760201b60201c565b80600160006101000a81548173ffffffffffffffffffffffffffffffffffffffff021916908373ffffffffffffffffffffffffffffffffffffffff16021790555050620001fc565b600033905090565b60008060009054906101000a900473ffffffffffffffffffffffffffffffffffffffff169050816000806101000a81548173ffffffffffffffffffffffffffffffffffffffff021916908373ffffffffffffffffffffffffffffffffffffffff1602179055508173ffffffffffffffffffffffffffffffffffffffff168173ffffffffffffffffffffffffffffffffffffffff167f8be0079c531659141344cd1fd0a4f28419497f9722a3daafe3b4186f6b6457e060405160405180910390a35050565b6000815190506200017c81620001e2565b92915050565b6000602082840312156200019557600080fd5b6000620001a5848285016200016b565b91505092915050565b6000620001bb82620001c2565b9050919050565b600073ffffffffffffffffffffffffffffffffffffffff82169050919050565b620001ed81620001ae565b8114620001f957600080fd5b50565b6138fb806200020c6000396000f3fe608060405234801561001057600080fd5b50600436106101005760003560e01c80638da5cb5b11610097578063e61392e211610066578063e61392e2146102ad578063ee083cc2146102c9578063f2fde38b146102e7578063f355645d1461030357610100565b80638da5cb5b1461022757806391b3065914610245578063aec4acc614610261578063b89496211461029157610100565b806352b0e0a2116100d357806352b0e0a21461018a5780635c66e96f146101ba578063689f1532146101ea578063715018a61461021d57610100565b806304ea6306146101055780630b6972f8146101215780631b92468d146101525780633cc32de11461016e575b600080fd5b61011f600480360381019061011a9190612819565b61031f565b005b61013b6004803603810190610136919061286b565b6105c4565b604051610149929190613578565b60405180910390f35b61016c60048036038101906101679190612819565b610678565b005b61018860048036038101906101839190612819565b610950565b005b6101a4600480360381019061019f9190612782565b6109f0565b6040516101b19190613377565b60405180910390f35b6101d460048036038101906101cf9190612819565b610f8f565b6040516101e19190613181565b60405180910390f35b61020460048036038101906101ff9190612819565b611216565b6040516102149493929190613113565b60405180910390f35b6102256112fb565b005b61022f611383565b60405161023c91906130f8565b60405180910390f35b61025f600480360381019061025a9190612759565b6113ac565b005b61027b60048036038101906102769190612819565b61146c565b604051610288919061319c565b60405180910390f35b6102ab60048036038101906102a69190612819565b6115da565b005b6102c760048036038101906102c29190612819565b6118b3565b005b6102d1611d1a565b6040516102de919061315f565b60405180910390f35b61030160048036038101906102fc9190612759565b612064565b005b61031d60048036038101906103189190612819565b61215c565b005b610327612401565b73ffffffffffffffffffffffffffffffffffffffff16610345611383565b73ffffffffffffffffffffffffffffffffffffffff161461039b576040517f08c379a0000000000000000000000000000000000000000000000000000000008152600401610392906132f7565b60405180910390fd5b6103a481612409565b6103e3576040517f08c379a00000000000000000000000000000000000000000000000000000000081526004016103da90613337565b60405180910390fd5b6001600681111561041d577f4e487b7100000000000000000000000000000000000000000000000000000000600052602160045260246000fd5b600260008363ffffffff1663ffffffff16815260200190815260200160002060020160009054906101000a900460ff166006811115610485577f4e487b7100000000000000000000000000000000000000000000000000000000600052602160045260246000fd5b146104c5576040517f08c379a00000000000000000000000000000000000000000000000000000000081526004016104bc90613237565b60405180910390fd5b6004600260008363ffffffff1663ffffffff16815260200190815260200160002060020160006101000a81548160ff02191690836006811115610531577f4e487b7100000000000000000000000000000000000000000000000000000000600052602160045260246000fd5b02179055507f6734a275287436cbbe08330aed79901370eafbb91bd9dd3ce85755cdad88ae8781600260008463ffffffff1663ffffffff16815260200190815260200160002060020160009054906101000a900460ff16600260008563ffffffff1663ffffffff1681526020019081526020016000206001016040516105b993929190613527565b60405180910390a150565b600080600260008563ffffffff1663ffffffff16815260200190815260200160002060030160008463ffffffff1663ffffffff16815260200190815260200160002060000160009054906101000a900463ffffffff16600260008663ffffffff1663ffffffff16815260200190815260200160002060030160008563ffffffff1663ffffffff16815260200190815260200160002060000160049054906101000a900463ffffffff16915091509250929050565b61068181612409565b6106c0576040517f08c379a00000000000000000000000000000000000000000000000000000000081526004016106b790613337565b60405180910390fd5b600260008263ffffffff1663ffffffff16815260200190815260200160002060000160009054906101000a900473ffffffffffffffffffffffffffffffffffffffff1673ffffffffffffffffffffffffffffffffffffffff163373ffffffffffffffffffffffffffffffffffffffff1614610770576040517f08c379a0000000000000000000000000000000000000000000000000000000008152600401610767906132d7565b60405180910390fd5b600160068111156107aa577f4e487b7100000000000000000000000000000000000000000000000000000000600052602160045260246000fd5b600260008363ffffffff1663ffffffff16815260200190815260200160002060020160009054906101000a900460ff166006811115610812577f4e487b7100000000000000000000000000000000000000000000000000000000600052602160045260246000fd5b14610852576040517f08c379a000000000000000000000000000000000000000000000000000000000815260040161084990613317565b60405180910390fd5b60028060008363ffffffff1663ffffffff16815260200190815260200160002060020160006101000a81548160ff021916908360068111156108bd577f4e487b7100000000000000000000000000000000000000000000000000000000600052602160045260246000fd5b02179055507f54fe98c6eb35fdaebf721822fc5dce5d2043bd4363c53263c6305921094ecf0981600260008463ffffffff1663ffffffff16815260200190815260200160002060020160009054906101000a900460ff16600260008563ffffffff1663ffffffff16815260200190815260200160002060010160405161094593929190613434565b60405180910390a150565b610958612401565b73ffffffffffffffffffffffffffffffffffffffff16610976611383565b73ffffffffffffffffffffffffffffffffffffffff16146109cc576040517f08c379a00000000000000000000000000000000000000000000000000000000081526004016109c3906132f7565b60405180910390fd5b80600160146101000a81548163ffffffff021916908363ffffffff16021790555050565b60008251845114610a36576040517f08c379a0000000000000000000000000000000000000000000000000000000008152600401610a2d906132b7565b60405180910390fd5b60008451905060005b818163ffffffff161015610c8c57600160149054906101000a900463ffffffff1663ffffffff16858263ffffffff1681518110610aa5577f4e487b7100000000000000000000000000000000000000000000000000000000600052603260045260246000fd5b602002602001015163ffffffff161015610af4576040517f08c379a0000000000000000000000000000000000000000000000000000000008152600401610aeb906131f7565b60405180910390fd5b848163ffffffff1681518110610b33577f4e487b7100000000000000000000000000000000000000000000000000000000600052603260045260246000fd5b602002602001015163ffffffff16600160009054906101000a900473ffffffffffffffffffffffffffffffffffffffff1673ffffffffffffffffffffffffffffffffffffffff166371a76cc6888463ffffffff1681518110610bbe577f4e487b7100000000000000000000000000000000000000000000000000000000600052603260045260246000fd5b60200260200101516040518263ffffffff1660e01b8152600401610be29190613377565b60206040518083038186803b158015610bfa57600080fd5b505afa158015610c0e573d6000803e3d6000fd5b505050506040513d601f19601f82011682018060405250810190610c329190612842565b63ffffffff161015610c79576040517f08c379a0000000000000000000000000000000000000000000000000000000008152600401610c7090613277565b60405180910390fd5b8080610c8490613789565b915050610a3f565b506000600360009054906101000a900463ffffffff1690506000600260008363ffffffff1663ffffffff1681526020019081526020016000209050338160000160006101000a81548173ffffffffffffffffffffffffffffffffffffffff021916908373ffffffffffffffffffffffffffffffffffffffff16021790555084816001019080519060200190610d22929190612579565b5060018160020160006101000a81548160ff02191690836006811115610d71577f4e487b7100000000000000000000000000000000000000000000000000000000600052602160045260246000fd5b021790555060005b838163ffffffff161015610eac57878163ffffffff1681518110610dc6577f4e487b7100000000000000000000000000000000000000000000000000000000600052603260045260246000fd5b60200260200101518260030160008363ffffffff1663ffffffff16815260200190815260200160002060000160006101000a81548163ffffffff021916908363ffffffff160217905550868163ffffffff1681518110610e4f577f4e487b7100000000000000000000000000000000000000000000000000000000600052603260045260246000fd5b60200260200101518260030160008363ffffffff1663ffffffff16815260200190815260200160002060000160046101000a81548163ffffffff021916908363ffffffff1602179055508080610ea490613789565b915050610d79565b508281600401819055506003600081819054906101000a900463ffffffff1680929190610ed890613789565b91906101000a81548163ffffffff021916908363ffffffff160217905550507fe31bd546b0b40ee87459d1e930eb3f46c61b28ac98d5b4f5a245173e8eebfdc482600260008563ffffffff1663ffffffff16815260200190815260200160002060020160009054906101000a900460ff16600260008663ffffffff1663ffffffff168152602001908152602001600020600101604051610f7a93929190613392565b60405180910390a18193505050509392505050565b6000610f99612401565b73ffffffffffffffffffffffffffffffffffffffff16610fb7611383565b73ffffffffffffffffffffffffffffffffffffffff161461100d576040517f08c379a0000000000000000000000000000000000000000000000000000000008152600401611004906132f7565b60405180910390fd5b61101682612409565b611055576040517f08c379a000000000000000000000000000000000000000000000000000000000815260040161104c90613337565b60405180910390fd5b60006001905060005b600260008563ffffffff1663ffffffff168152602001908152602001600020600401548163ffffffff16101561120c57600260008563ffffffff1663ffffffff16815260200190815260200160002060030160008263ffffffff1663ffffffff16815260200190815260200160002060000160049054906101000a900463ffffffff1663ffffffff16600160009054906101000a900473ffffffffffffffffffffffffffffffffffffffff1673ffffffffffffffffffffffffffffffffffffffff166371a76cc6600260008863ffffffff1663ffffffff16815260200190815260200160002060030160008563ffffffff1663ffffffff16815260200190815260200160002060000160009054906101000a900463ffffffff166040518263ffffffff1660e01b81526004016111949190613377565b60206040518083038186803b1580156111ac57600080fd5b505afa1580156111c0573d6000803e3d6000fd5b505050506040513d601f19601f820116820180604052508101906111e49190612842565b63ffffffff1610156111f9576000915061120c565b808061120490613789565b91505061105e565b5080915050919050565b60026020528060005260406000206000915090508060000160009054906101000a900473ffffffffffffffffffffffffffffffffffffffff169080600101805461125f90613757565b80601f016020809104026020016040519081016040528092919081815260200182805461128b90613757565b80156112d85780601f106112ad576101008083540402835291602001916112d8565b820191906000526020600020905b8154815290600101906020018083116112bb57829003601f168201915b5050505050908060020160009054906101000a900460ff16908060040154905084565b611303612401565b73ffffffffffffffffffffffffffffffffffffffff16611321611383565b73ffffffffffffffffffffffffffffffffffffffff1614611377576040517f08c379a000000000000000000000000000000000000000000000000000000000815260040161136e906132f7565b60405180910390fd5b61138160006124b5565b565b60008060009054906101000a900473ffffffffffffffffffffffffffffffffffffffff16905090565b6113b4612401565b73ffffffffffffffffffffffffffffffffffffffff166113d2611383565b73ffffffffffffffffffffffffffffffffffffffff1614611428576040517f08c379a000000000000000000000000000000000000000000000000000000000815260040161141f906132f7565b60405180910390fd5b80600160006101000a81548173ffffffffffffffffffffffffffffffffffffffff021916908373ffffffffffffffffffffffffffffffffffffffff16021790555050565b600061147782612409565b6114b6576040517f08c379a00000000000000000000000000000000000000000000000000000000081526004016114ad90613337565b60405180910390fd5b6114be611383565b73ffffffffffffffffffffffffffffffffffffffff163373ffffffffffffffffffffffffffffffffffffffff1614806115645750600260008363ffffffff1663ffffffff16815260200190815260200160002060000160009054906101000a900473ffffffffffffffffffffffffffffffffffffffff1673ffffffffffffffffffffffffffffffffffffffff163373ffffffffffffffffffffffffffffffffffffffff16145b6115a3576040517f08c379a000000000000000000000000000000000000000000000000000000000815260040161159a90613257565b60405180910390fd5b600260008363ffffffff1663ffffffff16815260200190815260200160002060020160009054906101000a900460ff169050919050565b6115e381612409565b611622576040517f08c379a000000000000000000000000000000000000000000000000000000000815260040161161990613337565b60405180910390fd5b600260008263ffffffff1663ffffffff16815260200190815260200160002060000160009054906101000a900473ffffffffffffffffffffffffffffffffffffffff1673ffffffffffffffffffffffffffffffffffffffff163373ffffffffffffffffffffffffffffffffffffffff16146116d2576040517f08c379a00000000000000000000000000000000000000000000000000000000081526004016116c9906132d7565b60405180910390fd5b6005600681111561170c577f4e487b7100000000000000000000000000000000000000000000000000000000600052602160045260246000fd5b600260008363ffffffff1663ffffffff16815260200190815260200160002060020160009054906101000a900460ff166006811115611774577f4e487b7100000000000000000000000000000000000000000000000000000000600052602160045260246000fd5b146117b4576040517f08c379a00000000000000000000000000000000000000000000000000000000081526004016117ab906131b7565b60405180910390fd5b6006600260008363ffffffff1663ffffffff16815260200190815260200160002060020160006101000a81548160ff02191690836006811115611820577f4e487b7100000000000000000000000000000000000000000000000000000000600052602160045260246000fd5b02179055507f694f845364e62a4e0d23b9144478ac1dc5b010e5724f52f8a438ec35530b599781600260008463ffffffff1663ffffffff16815260200190815260200160002060020160009054906101000a900460ff16600260008563ffffffff1663ffffffff1681526020019081526020016000206001016040516118a8939291906134d6565b60405180910390a150565b6118bb612401565b73ffffffffffffffffffffffffffffffffffffffff166118d9611383565b73ffffffffffffffffffffffffffffffffffffffff161461192f576040517f08c379a0000000000000000000000000000000000000000000000000000000008152600401611926906132f7565b60405180910390fd5b61193881612409565b611977576040517f08c379a000000000000000000000000000000000000000000000000000000000815260040161196e90613337565b60405180910390fd5b600160068111156119b1577f4e487b7100000000000000000000000000000000000000000000000000000000600052602160045260246000fd5b600260008363ffffffff1663ffffffff16815260200190815260200160002060020160009054906101000a900460ff166006811115611a19577f4e487b7100000000000000000000000000000000000000000000000000000000600052602160045260246000fd5b14611a59576040517f08c379a0000000000000000000000000000000000000000000000000000000008152600401611a5090613357565b60405180910390fd5b611a6281610f8f565b611aa1576040517f08c379a0000000000000000000000000000000000000000000000000000000008152600401611a9890613297565b60405180910390fd5b60005b600260008363ffffffff1663ffffffff168152602001908152602001600020600401548163ffffffff161015611c1a57600160009054906101000a900473ffffffffffffffffffffffffffffffffffffffff1673ffffffffffffffffffffffffffffffffffffffff1663a81b8deb600260008563ffffffff1663ffffffff16815260200190815260200160002060030160008463ffffffff1663ffffffff16815260200190815260200160002060000160009054906101000a900463ffffffff16600260008663ffffffff1663ffffffff16815260200190815260200160002060030160008563ffffffff1663ffffffff16815260200190815260200160002060000160049054906101000a900463ffffffff166040518363ffffffff1660e01b8152600401611bd5929190613578565b600060405180830381600087803b158015611bef57600080fd5b505af1158015611c03573d6000803e3d6000fd5b505050508080611c1290613789565b915050611aa4565b506003600260008363ffffffff1663ffffffff16815260200190815260200160002060020160006101000a81548160ff02191690836006811115611c87577f4e487b7100000000000000000000000000000000000000000000000000000000600052602160045260246000fd5b02179055507fe4d55e0c9d0f55d0701b427b7d159a4c54185a87929f31cddfd42dfb88f5136e81600260008463ffffffff1663ffffffff16815260200190815260200160002060020160009054906101000a900460ff16600260008563ffffffff1663ffffffff168152602001908152602001600020600101604051611d0f93929190613485565b60405180910390a150565b6060611d24612401565b73ffffffffffffffffffffffffffffffffffffffff16611d42611383565b73ffffffffffffffffffffffffffffffffffffffff1614611d98576040517f08c379a0000000000000000000000000000000000000000000000000000000008152600401611d8f906132f7565b60405180910390fd5b600080600090505b600360009054906101000a900463ffffffff1663ffffffff168163ffffffff161015611e905760016006811115611e00577f4e487b7100000000000000000000000000000000000000000000000000000000600052602160045260246000fd5b600260008363ffffffff1663ffffffff16815260200190815260200160002060020160009054906101000a900460ff166006811115611e68577f4e487b7100000000000000000000000000000000000000000000000000000000600052602160045260246000fd5b1415611e7d578180611e7990613789565b9250505b8080611e8890613789565b915050611da0565b5060008163ffffffff1667ffffffffffffffff811115611ed9577f4e487b7100000000000000000000000000000000000000000000000000000000600052604160045260246000fd5b604051908082528060200260200182016040528015611f075781602001602082028036833780820191505090505b509050600080600090505b600360009054906101000a900463ffffffff1663ffffffff168163ffffffff16101561205a5760016006811115611f72577f4e487b7100000000000000000000000000000000000000000000000000000000600052602160045260246000fd5b600260008363ffffffff1663ffffffff16815260200190815260200160002060020160009054906101000a900460ff166006811115611fda577f4e487b7100000000000000000000000000000000000000000000000000000000600052602160045260246000fd5b14156120475780838380611fed90613789565b945063ffffffff168151811061202c577f4e487b7100000000000000000000000000000000000000000000000000000000600052603260045260246000fd5b602002602001019063ffffffff16908163ffffffff16815250505b808061205290613789565b915050611f12565b5081935050505090565b61206c612401565b73ffffffffffffffffffffffffffffffffffffffff1661208a611383565b73ffffffffffffffffffffffffffffffffffffffff16146120e0576040517f08c379a00000000000000000000000000000000000000000000000000000000081526004016120d7906132f7565b60405180910390fd5b600073ffffffffffffffffffffffffffffffffffffffff168173ffffffffffffffffffffffffffffffffffffffff161415612150576040517f08c379a000000000000000000000000000000000000000000000000000000000815260040161214790613217565b60405180910390fd5b612159816124b5565b50565b612164612401565b73ffffffffffffffffffffffffffffffffffffffff16612182611383565b73ffffffffffffffffffffffffffffffffffffffff16146121d8576040517f08c379a00000000000000000000000000000000000000000000000000000000081526004016121cf906132f7565b60405180910390fd5b6121e181612409565b612220576040517f08c379a000000000000000000000000000000000000000000000000000000000815260040161221790613337565b60405180910390fd5b6003600681111561225a577f4e487b7100000000000000000000000000000000000000000000000000000000600052602160045260246000fd5b600260008363ffffffff1663ffffffff16815260200190815260200160002060020160009054906101000a900460ff1660068111156122c2577f4e487b7100000000000000000000000000000000000000000000000000000000600052602160045260246000fd5b14612302576040517f08c379a00000000000000000000000000000000000000000000000000000000081526004016122f9906131d7565b60405180910390fd5b6005600260008363ffffffff1663ffffffff16815260200190815260200160002060020160006101000a81548160ff0219169083600681111561236e577f4e487b7100000000000000000000000000000000000000000000000000000000600052602160045260246000fd5b02179055507f807b6621abbb4968d041859ae737605597e26a5eba8446883ea3c33c9eb3b04181600260008463ffffffff1663ffffffff16815260200190815260200160002060020160009054906101000a900460ff16600260008563ffffffff1663ffffffff1681526020019081526020016000206001016040516123f6939291906133e3565b60405180910390a150565b600033905090565b6000806006811115612444577f4e487b7100000000000000000000000000000000000000000000000000000000600052602160045260246000fd5b600260008463ffffffff1663ffffffff16815260200190815260200160002060020160009054906101000a900460ff1660068111156124ac577f4e487b7100000000000000000000000000000000000000000000000000000000600052602160045260246000fd5b14159050919050565b60008060009054906101000a900473ffffffffffffffffffffffffffffffffffffffff169050816000806101000a81548173ffffffffffffffffffffffffffffffffffffffff021916908373ffffffffffffffffffffffffffffffffffffffff1602179055508173ffffffffffffffffffffffffffffffffffffffff168173ffffffffffffffffffffffffffffffffffffffff167f8be0079c531659141344cd1fd0a4f28419497f9722a3daafe3b4186f6b6457e060405160405180910390a35050565b82805461258590613757565b90600052602060002090601f0160209004810192826125a757600085556125ee565b82601f106125c057805160ff19168380011785556125ee565b828001600101855582156125ee579182015b828111156125ed5782518255916020019190600101906125d2565b5b5090506125fb91906125ff565b5090565b5b80821115612618576000816000905550600101612600565b5090565b600061262f61262a846135d2565b6135a1565b9050808382526020820190508285602086028201111561264e57600080fd5b60005b8581101561267e5781612664888261272f565b845260208401935060208301925050600181019050612651565b5050509392505050565b600061269b612696846135fe565b6135a1565b9050828152602081018484840111156126b357600080fd5b6126be848285613715565b509392505050565b6000813590506126d581613897565b92915050565b600082601f8301126126ec57600080fd5b81356126fc84826020860161261c565b91505092915050565b600082601f83011261271657600080fd5b8135612726848260208601612688565b91505092915050565b60008135905061273e816138ae565b92915050565b600081519050612753816138ae565b92915050565b60006020828403121561276b57600080fd5b6000612779848285016126c6565b91505092915050565b60008060006060848603121561279757600080fd5b600084013567ffffffffffffffff8111156127b157600080fd5b6127bd868287016126db565b935050602084013567ffffffffffffffff8111156127da57600080fd5b6127e6868287016126db565b925050604084013567ffffffffffffffff81111561280357600080fd5b61280f86828701612705565b9150509250925092565b60006020828403121561282b57600080fd5b60006128398482850161272f565b91505092915050565b60006020828403121561285457600080fd5b600061286284828501612744565b91505092915050565b6000806040838503121561287e57600080fd5b600061288c8582860161272f565b925050602061289d8582860161272f565b9150509250929050565b60006128b383836130da565b60208301905092915050565b6128c881613698565b82525050565b60006128d982613653565b6128e38185613676565b93506128ee8361362e565b8060005b8381101561291f57815161290688826128a7565b975061291183613669565b9250506001810190506128f2565b5085935050505092915050565b612935816136aa565b82525050565b61294481613703565b82525050565b60006129558261365e565b61295f8185613687565b935061296f818560208601613724565b61297881613872565b840191505092915050565b6000815461299081613757565b61299a8186613687565b945060018216600081146129b557600181146129c7576129fa565b60ff19831686526020860193506129fa565b6129d08561363e565b60005b838110156129f2578154818901526001820191506020810190506129d3565b808801955050505b50505092915050565b6000612a10603883613687565b91507f4f7264657220737461747573206d75737420626520496e5472616e736974206960008301527f6e206f7264657220746f20626520636f6e6669726d65642e00000000000000006020830152604082019050919050565b6000612a76603783613687565b91507f4f7264657220737461747573206d75737420626520416363657074656420696e60008301527f206f7264657220746f2062652064656c6976657265642e0000000000000000006020830152604082019050919050565b6000612adc603b83613687565b91507f4974656d207175616e74697479206d7573742062652067726561746572206f7260008301527f20657175616c20746f206d696e4974656d735065724f726465722e00000000006020830152604082019050919050565b6000612b42602683613687565b91507f4f776e61626c653a206e6577206f776e657220697320746865207a65726f206160008301527f64647265737300000000000000000000000000000000000000000000000000006020830152604082019050919050565b6000612ba8600d83613687565b91507f4f726465722043726561746564000000000000000000000000000000000000006000830152602082019050919050565b6000612be8603283613687565b91507f4f7264657220737461747573206d757374206265204e657720696e206f72646560008301527f7220746f206765742072656a65637465642e00000000000000000000000000006020830152604082019050919050565b6000612c4e605683613687565b91507f4f6e6c792074686520636f6e7472616374206f776e6572206f7220746865206360008301527f6c69656e742077686f20706c6163656420746865206f726465722063616e207060208301527f6572666f726d2074686973206f7065726174696f6e2e000000000000000000006040830152606082019050919050565b6000612cda602083613687565b91507f4974656d20646f6573206e6f74206861766520656e6f7567682073746f636b2e6000830152602082019050919050565b6000612d1a600f83613687565b91507f4f726465722064656c69766572656400000000000000000000000000000000006000830152602082019050919050565b6000612d5a603883613687565b91507f4174206c65617374206f6e65206974656d20696e207468652063757272656e7460008301527f206f72646572206973206e6f7420617661696c61626c652e00000000000000006020830152604082019050919050565b6000612dc0603b83613687565b91507f41727261797320666f72206974656d2049447320616e64207175616e7469746960008301527f6573206d757374206265207468652073616d65206c656e6774682e00000000006020830152604082019050919050565b6000612e26604083613687565b91507f4f6e6c792074686520636c69656e742077686f20706c6163656420746865206f60008301527f726465722063616e20706572666f726d2074686973206f7065726174696f6e2e6020830152604082019050919050565b6000612e8c600f83613687565b91507f4f726465722063616e63656c6c656400000000000000000000000000000000006000830152602082019050919050565b6000612ecc602083613687565b91507f4f776e61626c653a2063616c6c6572206973206e6f7420746865206f776e65726000830152602082019050919050565b6000612f0c600e83613687565b91507f4f726465722041636365707465640000000000000000000000000000000000006000830152602082019050919050565b6000612f4c603383613687565b91507f4f7264657220737461747573206d757374206265204e657720696e206f72646560008301527f7220746f206765742063616e63656c6c65642e000000000000000000000000006020830152604082019050919050565b6000612fb2601583613687565b91507f4f7264657220646f6573206e6f742065786973742e00000000000000000000006000830152602082019050919050565b6000612ff2603183613687565b91507f4f7264657220737461747573206d757374206265204e657720696e206f72646560008301527f7220746f2062652061636365707465642e0000000000000000000000000000006020830152604082019050919050565b6000613058601883613687565b91507f4f726465722044656c697665727920636f6e6669726d656400000000000000006000830152602082019050919050565b6000613098600e83613687565b91507f4f726465722072656a65637465640000000000000000000000000000000000006000830152602082019050919050565b6130d4816136e9565b82525050565b6130e3816136f3565b82525050565b6130f2816136f3565b82525050565b600060208201905061310d60008301846128bf565b92915050565b600060808201905061312860008301876128bf565b818103602083015261313a818661294a565b9050613149604083018561293b565b61315660608301846130cb565b95945050505050565b6000602082019050818103600083015261317981846128ce565b905092915050565b6000602082019050613196600083018461292c565b92915050565b60006020820190506131b1600083018461293b565b92915050565b600060208201905081810360008301526131d081612a03565b9050919050565b600060208201905081810360008301526131f081612a69565b9050919050565b6000602082019050818103600083015261321081612acf565b9050919050565b6000602082019050818103600083015261323081612b35565b9050919050565b6000602082019050818103600083015261325081612bdb565b9050919050565b6000602082019050818103600083015261327081612c41565b9050919050565b6000602082019050818103600083015261329081612ccd565b9050919050565b600060208201905081810360008301526132b081612d4d565b9050919050565b600060208201905081810360008301526132d081612db3565b9050919050565b600060208201905081810360008301526132f081612e19565b9050919050565b6000602082019050818103600083015261331081612ebf565b9050919050565b6000602082019050818103600083015261333081612f3f565b9050919050565b6000602082019050818103600083015261335081612fa5565b9050919050565b6000602082019050818103600083015261337081612fe5565b9050919050565b600060208201905061338c60008301846130e9565b92915050565b60006080820190506133a760008301866130e9565b6133b4602083018561293b565b81810360408301526133c68184612983565b905081810360608301526133d981612b9b565b9050949350505050565b60006080820190506133f860008301866130e9565b613405602083018561293b565b81810360408301526134178184612983565b9050818103606083015261342a81612d0d565b9050949350505050565b600060808201905061344960008301866130e9565b613456602083018561293b565b81810360408301526134688184612983565b9050818103606083015261347b81612e7f565b9050949350505050565b600060808201905061349a60008301866130e9565b6134a7602083018561293b565b81810360408301526134b98184612983565b905081810360608301526134cc81612eff565b9050949350505050565b60006080820190506134eb60008301866130e9565b6134f8602083018561293b565b818103604083015261350a8184612983565b9050818103606083015261351d8161304b565b9050949350505050565b600060808201905061353c60008301866130e9565b613549602083018561293b565b818103604083015261355b8184612983565b9050818103606083015261356e8161308b565b9050949350505050565b600060408201905061358d60008301856130e9565b61359a60208301846130e9565b9392505050565b6000604051905081810181811067ffffffffffffffff821117156135c8576135c7613843565b5b8060405250919050565b600067ffffffffffffffff8211156135ed576135ec613843565b5b602082029050602081019050919050565b600067ffffffffffffffff82111561361957613618613843565b5b601f19601f8301169050602081019050919050565b6000819050602082019050919050565b60008190508160005260206000209050919050565b600081519050919050565b600081519050919050565b6000602082019050919050565b600082825260208201905092915050565b600082825260208201905092915050565b60006136a3826136c9565b9050919050565b60008115159050919050565b60008190506136c482613883565b919050565b600073ffffffffffffffffffffffffffffffffffffffff82169050919050565b6000819050919050565b600063ffffffff82169050919050565b600061370e826136b6565b9050919050565b82818337600083830152505050565b60005b83811015613742578082015181840152602081019050613727565b83811115613751576000848401525b50505050565b6000600282049050600182168061376f57607f821691505b6020821081141561378357613782613814565b5b50919050565b6000613794826136f3565b915063ffffffff8214156137ab576137aa6137b6565b5b600182019050919050565b7f4e487b7100000000000000000000000000000000000000000000000000000000600052601160045260246000fd5b7f4e487b7100000000000000000000000000000000000000000000000000000000600052602160045260246000fd5b7f4e487b7100000000000000000000000000000000000000000000000000000000600052602260045260246000fd5b7f4e487b7100000000000000000000000000000000000000000000000000000000600052604160045260246000fd5b6000601f19601f8301169050919050565b60078110613894576138936137e5565b5b50565b6138a081613698565b81146138ab57600080fd5b50565b6138b7816136f3565b81146138c257600080fd5b5056fea2646970667358221220c1a91dd37a720984b83b88b7800f696174b6d238a2b006bc5b45adc30eeda6da64736f6c63430008000033",
  "linkReferences": {},
  "deployedLinkReferences": {}
}