{
  "_format": "hh-sol-artifact-1",
  "contractName": "Stock",
  "sourceName": "contracts/Stock.sol",
  "abi": [
    {
      "anonymous": false,
      "inputs": [
        {
          "indexed": false,
          "internalType": "uint32",
          "name": "id",
          "type": "uint32"
        },
        {
          "indexed": false,
          "internalType": "string",
          "name": "message",
          "type": "string"
        }
      ],
      "name": "ItemCreated",
      "type": "event"
    },
    {
      "anonymous": false,
      "inputs": [
        {
          "indexed": false,
          "internalType": "uint32",
          "name": "id",
          "type": "uint32"
        },
        {
          "indexed": false,
          "internalType": "string",
          "name": "field",
          "type": "string"
        },
        {
          "indexed": false,
          "internalType": "string",
          "name": "message",
          "type": "string"
        }
      ],
      "name": "ItemFieldUpdated",
      "type": "event"
    },
    {
      "anonymous": false,
      "inputs": [
        {
          "indexed": false,
          "internalType": "uint32",
          "name": "id",
          "type": "uint32"
        },
        {
          "indexed": false,
          "internalType": "string",
          "name": "message",
          "type": "string"
        }
      ],
      "name": "ItemRemoved",
      "type": "event"
    },
    {
      "anonymous": false,
      "inputs": [
        {
          "indexed": false,
          "internalType": "uint32",
          "name": "id",
          "type": "uint32"
        },
        {
          "indexed": false,
          "internalType": "uint32",
          "name": "stock",
          "type": "uint32"
        },
        {
          "indexed": false,
          "internalType": "string",
          "name": "message",
          "type": "string"
        }
      ],
      "name": "ItemStockUpdated",
      "type": "event"
    },
    {
      "inputs": [
        {
          "internalType": "string",
          "name": "name",
          "type": "string"
        },
        {
          "internalType": "string",
          "name": "description",
          "type": "string"
        },
        {
          "internalType": "string",
          "name": "category",
          "type": "string"
        },
        {
          "internalType": "uint32",
          "name": "price",
          "type": "uint32"
        },
        {
          "internalType": "uint32",
          "name": "stock",
          "type": "uint32"
        }
      ],
      "name": "createItem",
      "outputs": [
        {
          "internalType": "uint32",
          "name": "",
          "type": "uint32"
        }
      ],
      "stateMutability": "nonpayable",
      "type": "function"
    },
    {
      "inputs": [
        {
          "internalType": "uint32",
          "name": "id",
          "type": "uint32"
        },
        {
          "internalType": "uint32",
          "name": "amount",
          "type": "uint32"
        }
      ],
      "name": "decreaseItemStock",
      "outputs": [],
      "stateMutability": "nonpayable",
      "type": "function"
    },
    {
      "inputs": [
        {
          "internalType": "uint32",
          "name": "id",
          "type": "uint32"
        }
      ],
      "name": "getItem",
      "outputs": [
        {
          "internalType": "string",
          "name": "name",
          "type": "string"
        },
        {
          "internalType": "string",
          "name": "description",
          "type": "string"
        },
        {
          "internalType": "string",
          "name": "category",
          "type": "string"
        },
        {
          "internalType": "uint32",
          "name": "price",
          "type": "uint32"
        },
        {
          "internalType": "uint32",
          "name": "stock",
          "type": "uint32"
        }
      ],
      "stateMutability": "view",
      "type": "function"
    },
    {
      "inputs": [
        {
          "internalType": "uint32",
          "name": "id",
          "type": "uint32"
        }
      ],
      "name": "getItemStock",
      "outputs": [
        {
          "internalType": "uint32",
          "name": "stock",
          "type": "uint32"
        }
      ],
      "stateMutability": "view",
      "type": "function"
    },
    {
      "inputs": [
        {
          "internalType": "uint32",
          "name": "id",
          "type": "uint32"
        },
        {
          "internalType": "uint32",
          "name": "amount",
          "type": "uint32"
        }
      ],
      "name": "increaseItemStock",
      "outputs": [],
      "stateMutability": "nonpayable",
      "type": "function"
    },
    {
      "inputs": [
        {
          "internalType": "uint32",
          "name": "id",
          "type": "uint32"
        }
      ],
      "name": "removeItem",
      "outputs": [],
      "stateMutability": "nonpayable",
      "type": "function"
    },
    {
      "inputs": [
        {
          "internalType": "uint32",
          "name": "id",
          "type": "uint32"
        },
        {
          "internalType": "string",
          "name": "category",
          "type": "string"
        }
      ],
      "name": "updateItemCategory",
      "outputs": [],
      "stateMutability": "nonpayable",
      "type": "function"
    },
    {
      "inputs": [
        {
          "internalType": "uint32",
          "name": "id",
          "type": "uint32"
        },
        {
          "internalType": "string",
          "name": "description",
          "type": "string"
        }
      ],
      "name": "updateItemDescription",
      "outputs": [],
      "stateMutability": "nonpayable",
      "type": "function"
    },
    {
      "inputs": [
        {
          "internalType": "uint32",
          "name": "id",
          "type": "uint32"
        },
        {
          "internalType": "string",
          "name": "name",
          "type": "string"
        }
      ],
      "name": "updateItemName",
      "outputs": [],
      "stateMutability": "nonpayable",
      "type": "function"
    }
  ],
  "bytecode": "0x608060405234801561001057600080fd5b506118bc806100206000396000f3fe608060405234801561001057600080fd5b50600436106100935760003560e01c8063a4dfb4c811610066578063a4dfb4c814610130578063a81b8deb14610164578063e6e334aa14610180578063f06f6e681461019c578063f64ae2c0146101b857610093565b8063012a01301461009857806338a3a73a146100c857806367523095146100e457806371a76cc614610100575b600080fd5b6100b260048036038101906100ad9190610ed0565b6101d4565b6040516100bf91906114aa565b60405180910390f35b6100e260048036038101906100dd9190610fb8565b61036b565b005b6100fe60048036038101906100f99190610fb8565b610426565b005b61011a60048036038101906101159190610f8f565b6104e1565b60405161012791906114aa565b60405180910390f35b61014a60048036038101906101459190610f8f565b610564565b60405161015b9594939291906113c2565b60405180910390f35b61017e6004803603810190610179919061100c565b610810565b005b61019a60048036038101906101959190610f8f565b6109c2565b005b6101b660048036038101906101b1919061100c565b610ac3565b005b6101d260048036038101906101cd9190610fb8565b610c7b565b005b600080600160009054906101000a900463ffffffff16905060008060008363ffffffff1663ffffffff168152602001908152602001600020905061021782610d36565b15610257576040517f08c379a000000000000000000000000000000000000000000000000000000000815260040161024e9061144a565b60405180910390fd5b8781600001908051906020019061026f929190610d70565b5086816001019080519060200190610288929190610d70565b50858160020190805190602001906102a1929190610d70565b50848160030160006101000a81548163ffffffff021916908363ffffffff160217905550838160030160046101000a81548163ffffffff021916908363ffffffff16021790555060018060009054906101000a900463ffffffff1661030691906116df565b600160006101000a81548163ffffffff021916908363ffffffff1602179055507f8064b691ca5840889b71de9f509c608e7060ae117ead1c31442c0a3c76047b6f82604051610355919061158e565b60405180910390a1819250505095945050505050565b61037482610d36565b6103b3576040517f08c379a00000000000000000000000000000000000000000000000000000000081526004016103aa9061146a565b60405180910390fd5b806000808463ffffffff1663ffffffff16815260200190815260200160002060010190805190602001906103e8929190610d70565b507f68f24ace299b771a151ee203f1fac00e3999feca3077ff04f12f6fc9c6f227e9828260405161041a929190611508565b60405180910390a15050565b61042f82610d36565b61046e576040517f08c379a00000000000000000000000000000000000000000000000000000000081526004016104659061146a565b60405180910390fd5b806000808463ffffffff1663ffffffff16815260200190815260200160002060000190805190602001906104a3929190610d70565b507f68f24ace299b771a151ee203f1fac00e3999feca3077ff04f12f6fc9c6f227e982826040516104d592919061154b565b60405180910390a15050565b60006104ec82610d36565b61052b576040517f08c379a00000000000000000000000000000000000000000000000000000000081526004016105229061146a565b60405180910390fd5b6000808363ffffffff1663ffffffff16815260200190815260200160002060030160049054906101000a900463ffffffff169050919050565b606080606060008061057586610d36565b6105b4576040517f08c379a00000000000000000000000000000000000000000000000000000000081526004016105ab9061146a565b60405180910390fd5b60008060008863ffffffff1663ffffffff1681526020019081526020016000206040518060a00160405290816000820180546105ef9061179f565b80601f016020809104026020016040519081016040528092919081815260200182805461061b9061179f565b80156106685780601f1061063d57610100808354040283529160200191610668565b820191906000526020600020905b81548152906001019060200180831161064b57829003601f168201915b505050505081526020016001820180546106819061179f565b80601f01602080910402602001604051908101604052809291908181526020018280546106ad9061179f565b80156106fa5780601f106106cf576101008083540402835291602001916106fa565b820191906000526020600020905b8154815290600101906020018083116106dd57829003601f168201915b505050505081526020016002820180546107139061179f565b80601f016020809104026020016040519081016040528092919081815260200182805461073f9061179f565b801561078c5780601f106107615761010080835404028352916020019161078c565b820191906000526020600020905b81548152906001019060200180831161076f57829003601f168201915b505050505081526020016003820160009054906101000a900463ffffffff1663ffffffff1663ffffffff1681526020016003820160049054906101000a900463ffffffff1663ffffffff1663ffffffff1681525050905080600001518160200151826040015183606001518460800151955095509550955095505091939590929450565b61081982610d36565b610858576040517f08c379a000000000000000000000000000000000000000000000000000000000815260040161084f9061146a565b60405180910390fd5b6000808363ffffffff1663ffffffff16815260200190815260200160002060030160049054906101000a900463ffffffff1663ffffffff168163ffffffff1611156108d8576040517f08c379a00000000000000000000000000000000000000000000000000000000081526004016108cf9061142a565b60405180910390fd5b806000808463ffffffff1663ffffffff16815260200190815260200160002060030160049054906101000a900463ffffffff166109159190611719565b6000808463ffffffff1663ffffffff16815260200190815260200160002060030160046101000a81548163ffffffff021916908363ffffffff1602179055507f727e1c3e83ebe923a38397d6afb480f79c64db43ad3c930497f9c17a690322e6826000808563ffffffff1663ffffffff16815260200190815260200160002060030160049054906101000a900463ffffffff166040516109b6929190611626565b60405180910390a15050565b6109cb81610d36565b610a0a576040517f08c379a0000000000000000000000000000000000000000000000000000000008152600401610a019061146a565b60405180910390fd5b6000808263ffffffff1663ffffffff16815260200190815260200160002060008082016000610a399190610df6565b600182016000610a499190610df6565b600282016000610a599190610df6565b6003820160006101000a81549063ffffffff02191690556003820160046101000a81549063ffffffff021916905550507ff34166099a8324650a2a407bec0885937a1204c2dc2f1c91f253dadeb2cc9d0681604051610ab891906115bc565b60405180910390a150565b610acc82610d36565b610b0b576040517f08c379a0000000000000000000000000000000000000000000000000000000008152600401610b029061146a565b60405180910390fd5b6000816000808563ffffffff1663ffffffff16815260200190815260200160002060030160049054906101000a900463ffffffff16610b4a91906116df565b90506000808463ffffffff1663ffffffff16815260200190815260200160002060030160049054906101000a900463ffffffff1663ffffffff168163ffffffff161015610bcc576040517f08c379a0000000000000000000000000000000000000000000000000000000008152600401610bc39061148a565b60405180910390fd5b806000808563ffffffff1663ffffffff16815260200190815260200160002060030160046101000a81548163ffffffff021916908363ffffffff1602179055507f727e1c3e83ebe923a38397d6afb480f79c64db43ad3c930497f9c17a690322e6836000808663ffffffff1663ffffffff16815260200190815260200160002060030160049054906101000a900463ffffffff16604051610c6e9291906115ea565b60405180910390a1505050565b610c8482610d36565b610cc3576040517f08c379a0000000000000000000000000000000000000000000000000000000008152600401610cba9061146a565b60405180910390fd5b806000808463ffffffff1663ffffffff1681526020019081526020016000206002019080519060200190610cf8929190610d70565b507f68f24ace299b771a151ee203f1fac00e3999feca3077ff04f12f6fc9c6f227e98282604051610d2a9291906114c5565b60405180910390a15050565b6000806000808463ffffffff1663ffffffff1681526020019081526020016000206000018054610d659061179f565b905014159050919050565b828054610d7c9061179f565b90600052602060002090601f016020900481019282610d9e5760008555610de5565b82601f10610db757805160ff1916838001178555610de5565b82800160010185558215610de5579182015b82811115610de4578251825591602001919060010190610dc9565b5b509050610df29190610e36565b5090565b508054610e029061179f565b6000825580601f10610e145750610e33565b601f016020900490600052602060002090810190610e329190610e36565b5b50565b5b80821115610e4f576000816000905550600101610e37565b5090565b6000610e66610e6184611693565b611662565b905082815260208101848484011115610e7e57600080fd5b610e8984828561175d565b509392505050565b600082601f830112610ea257600080fd5b8135610eb2848260208601610e53565b91505092915050565b600081359050610eca8161186f565b92915050565b600080600080600060a08688031215610ee857600080fd5b600086013567ffffffffffffffff811115610f0257600080fd5b610f0e88828901610e91565b955050602086013567ffffffffffffffff811115610f2b57600080fd5b610f3788828901610e91565b945050604086013567ffffffffffffffff811115610f5457600080fd5b610f6088828901610e91565b9350506060610f7188828901610ebb565b9250506080610f8288828901610ebb565b9150509295509295909350565b600060208284031215610fa157600080fd5b6000610faf84828501610ebb565b91505092915050565b60008060408385031215610fcb57600080fd5b6000610fd985828601610ebb565b925050602083013567ffffffffffffffff811115610ff657600080fd5b61100285828601610e91565b9150509250929050565b6000806040838503121561101f57600080fd5b600061102d85828601610ebb565b925050602061103e85828601610ebb565b9150509250929050565b6000611053826116c3565b61105d81856116ce565b935061106d81856020860161176c565b6110768161185e565b840191505092915050565b600061108e6016836116ce565b91507f4974656d2063617465676f727920757064617465642e000000000000000000006000830152602082019050919050565b60006110ce6015836116ce565b91507f4974656d2073746f636b20696e637265617365642e00000000000000000000006000830152602082019050919050565b600061110e6048836116ce565b91507f4661696c656420746f206465637265617365206974656d2073746f636b3a207360008301527f746f636b206d75737420626520657175616c20746f206f72206772656174657260208301527f207468616e20302e0000000000000000000000000000000000000000000000006040830152606082019050919050565b600061119a6019836116ce565b91507f4974656d206465736372697074696f6e20757064617465642e000000000000006000830152602082019050919050565b60006111da6015836116ce565b91507f4974656d2073746f636b206465637265617365642e00000000000000000000006000830152602082019050919050565b600061121a6012836116ce565b91507f4974656d206e616d6520757064617465642e00000000000000000000000000006000830152602082019050919050565b600061125a6014836116ce565b91507f4974656d20616c7265616479206578697374732e0000000000000000000000006000830152602082019050919050565b600061129a600d836116ce565b91507f4974656d20637265617465642e000000000000000000000000000000000000006000830152602082019050919050565b60006112da6014836116ce565b91507f4974656d20646f6573206e6f742065786973742e0000000000000000000000006000830152602082019050919050565b600061131a600d836116ce565b91507f4974656d2072656d6f7665642e000000000000000000000000000000000000006000830152602082019050919050565b600061135a6032836116ce565b91507f4661696c656420746f20696e637265617365206974656d2073746f636b20626560008301527f6361757365206f66206f766572666c6f772e00000000000000000000000000006020830152604082019050919050565b6113bc8161174d565b82525050565b600060a08201905081810360008301526113dc8188611048565b905081810360208301526113f08187611048565b905081810360408301526114048186611048565b905061141360608301856113b3565b61142060808301846113b3565b9695505050505050565b6000602082019050818103600083015261144381611101565b9050919050565b600060208201905081810360008301526114638161124d565b9050919050565b60006020820190508181036000830152611483816112cd565b9050919050565b600060208201905081810360008301526114a38161134d565b9050919050565b60006020820190506114bf60008301846113b3565b92915050565b60006060820190506114da60008301856113b3565b81810360208301526114ec8184611048565b905081810360408301526114ff81611081565b90509392505050565b600060608201905061151d60008301856113b3565b818103602083015261152f8184611048565b905081810360408301526115428161118d565b90509392505050565b600060608201905061156060008301856113b3565b81810360208301526115728184611048565b905081810360408301526115858161120d565b90509392505050565b60006040820190506115a360008301846113b3565b81810360208301526115b48161128d565b905092915050565b60006040820190506115d160008301846113b3565b81810360208301526115e28161130d565b905092915050565b60006060820190506115ff60008301856113b3565b61160c60208301846113b3565b818103604083015261161d816110c1565b90509392505050565b600060608201905061163b60008301856113b3565b61164860208301846113b3565b8181036040830152611659816111cd565b90509392505050565b6000604051905081810181811067ffffffffffffffff821117156116895761168861182f565b5b8060405250919050565b600067ffffffffffffffff8211156116ae576116ad61182f565b5b601f19601f8301169050602081019050919050565b600081519050919050565b600082825260208201905092915050565b60006116ea8261174d565b91506116f58361174d565b92508263ffffffff0382111561170e5761170d6117d1565b5b828201905092915050565b60006117248261174d565b915061172f8361174d565b925082821015611742576117416117d1565b5b828203905092915050565b600063ffffffff82169050919050565b82818337600083830152505050565b60005b8381101561178a57808201518184015260208101905061176f565b83811115611799576000848401525b50505050565b600060028204905060018216806117b757607f821691505b602082108114156117cb576117ca611800565b5b50919050565b7f4e487b7100000000000000000000000000000000000000000000000000000000600052601160045260246000fd5b7f4e487b7100000000000000000000000000000000000000000000000000000000600052602260045260246000fd5b7f4e487b7100000000000000000000000000000000000000000000000000000000600052604160045260246000fd5b6000601f19601f8301169050919050565b6118788161174d565b811461188357600080fd5b5056fea264697066735822122035b7e41c6e273925bf02bcf69f6782e2e4f9fd206c9469e8f92c73dfc10b6b2f64736f6c63430008000033",
  "linkReferences": {},
  "deployedLinkReferences": {}
}